:020000040800F2
:10000000B8DB002025030008832000088F1F0008AC
:1000100081200008CD1100081F2800080000000002
:100020000000000000000000000000006D02000859
:100030006513000800000000C10200087B220008D0
:100040003F0300083F0300083F0300083F03000888
:100050003F0300083F0300083F0300083F03000878
:100060003F0300083F0300083F0300083F03000868
:100070003F0300083F0300083F0300083F03000858
:100080003F0300083F0300083F0300083F03000848
:100090003F0300083F0300083F0300083F03000838
:1000A0003F0300083F0300083F0300083F03000828
:1000B0003F0300083F0300083F0300083F03000818
:1000C0003F0300083F0300083F0300083F03000808
:1000D0003F030008B92700083F0300083F0300085A
:1000E0003F0300083F0300083F0300083F030008E8
:1000F0003F0300083F0300083F0300083F030008D8
:100100003F0300083F0300083F0300083F030008C7
:100110003F0300083F0300083F0300083F030008B7
:100120003F0300083F0300083F0300083F030008A7
:100130003F0300083F0300083F0300083F03000897
:100140003F0300083F0300083F0300083F03000887
:100150003F0300083F0300083F0300083F03000877
:100160003F0300083F0300083F0300083F03000867
:100170003F0300083F0300083F03000800000000A1
:100180003F0300083F0300083F0300083F03000847
:100190003F0300083F0300083F0300083F03000837
:1001A0003F0300083F0300083F03000800F002F887
:1001B00000F04CF80AA090E8000C82448344AAF1B5
:1001C0000107DA4501D100F041F8AFF2090EBAE8B3
:1001D0000F0013F0010F18BFFB1A43F0010318477B
:1001E000AC3F0000CC3F0000103A24BF78C878C173
:1001F000FAD8520724BF30C830C144BF04680C602D
:10020000704700000023002400250026103A28BF74
:1002100078C1FBD8520728BF30C148BF0B60704778
:10022000642900F00981732900F0B0820020704732
:100230001FB503F0B1FE9DE8030000F0B9FD00F02A
:10024000BFFA1FBD10B500F024FB10BD00F087FB06
:100250001146FFF7EDFF02F0A3FB00F077FD03B4BA
:10026000FFF7F0FF03BC00F015FF00002A4B1968F0
:100270000868B0E8F04F80F30988BFF36F8F4FF044
:10028000000080F3118870470000000006480068F5
:10029000006880F3088862B661B6BFF34F8FBFF382
:1002A0006F8F00DF00BF00BF08ED00E0DFF80C003B
:1002B000016841F470010160704700BF88ED00E003
:1002C000EFF30980BFF36F8F134B1A681EF0100F06
:1002D00008BF20ED108A20E9F04F106008B44FF0FD
:1002E000500080F31188BFF34F8FBFF36F8F03F07F
:1002F000D7F84FF0000080F3118808BC196808682F
:10030000B0E8F04F1EF0100F08BFB0EC108A80F379
:100310000988BFF36F8F704718000020EFF3058046
:10032000704700000948804709480047FEE7FEE79C
:10033000FEE7FEE7FEE7FEE7FEE7FEE7FEE7FEE795
:1003400004480549054A064B704700000923000888
:10035000AD010008B8D50020B8DB0020B8D70020D8
:10036000B8D700200FB4044910B503AA029800F0D2
:1003700011FA10BC5DF814FBACD400202DE9F0415B
:100380000E460446002020622046E168884730B3CC
:10039000252805D0D4E901219047206A401CF2E7C6
:1003A000E168204600278847050018D0A5F14100E4
:1003B000192802D820354FF40067324629462046D6
:1003C0002760FFF72DFF40B1012804D0F61D26F06D
:1003D00007060836D8E7361DD6E72846DAE7206A4A
:1003E000BDE8F08170B50C460546012A05D0287895
:1003F000800600D5EA69002302E0012305E05B1CCA
:10040000934202D2E05C0028F9D1A869E618C01A2C
:10041000A861286A184428622846AFF3008004E0E7
:10042000D5E9012114F8010B9047B442F8D32846CE
:10043000AFF3008070BD00002DE9F04106460024B6
:1004400010687529314616A510D0AFF3008000283A
:1004500002DA404213A507E031688A0701D512A5E8
:1004600002E0490704D511A5012401E0AFF30080A3
:1004700000210A2206F1240709E0B0FBF2FCB0FBE0
:10048000F2F302FB1C00303078541846491C002857
:10049000F3D123462A463046BDE8F04100F0F2B8D9
:1004A000000000002D0000002B00000020000000D4
:1004B00010B5431C02E010F8011B71B18107FAD19D
:1004C0004FF0013202C88C1A8C4314EAC211F9D0E1
:1004D000C01A0A0603D0C01E10BDC01A10BD0A04FF
:1004E00001D0801E10BD0902FCD0401E10BD032AA1
:1004F00040F2308010F0030C00F0158011F8013B41
:10050000BCF1020F624498BF11F801CB00F8013B27
:1005100038BF11F8013BA2F1040298BF00F801CBEB
:1005200038BF00F8013B11F0030300F02580083AC2
:10053000C0F0088051F8043B083A51F804CBA0E819
:100540000810F5E7121D5CBF51F8043B40F8043B6E
:10055000AFF30080D20724BF11F8013B11F801CBA3
:1005600048BF11F8012B24BF00F8013B00F801CB74
:1005700048BF00F8012B704710B5203AC0F00B803F
:10058000B1E81850203AA0E81850B1E81850A0E897
:100590001850BFF4F5AF5FEA027C24BFB1E81850F1
:1005A000A0E8185044BF18C918C0BDE810405FEA61
:1005B000827C24BF51F8043B40F8043B08BF7047DD
:1005C000D20728BF31F8023B48BF11F8012B28BFE2
:1005D00020F8023B48BF00F8012B704702F0FF03F0
:1005E00043EA032242EA024200F002B84FF000025E
:1005F0000429C0F0128010F0030C00F01B80CCF135
:10060000040CBCF1020F18BF00F8012BA8BF20F8A2
:10061000022BA1EB0C0100F00DB85FEAC17C24BFF6
:1006200000F8012B00F8012B48BF00F8012B7047A0
:100630004FF0000200B5134694469646203922BF7B
:10064000A0E80C50A0E80C50B1F12001BFF4F7AFC6
:10065000090728BFA0E80C5048BF0CC05DF804EBA8
:10066000890028BF40F8042B08BF704748BF20F816
:10067000022B11F0804F18BF00F8012B7047704714
:10068000704770472DE9F0470D469946924604465B
:1006900000F124080168880604D5E06921F0100102
:1006A000216000E00120A84201DD471B00E0002797
:1006B000A1697A1902EB0900081AA0612078C00626
:1006C00002D42046AFF30080002608E0D4E90121DF
:1006D0001AF806009047206A401C761C20624E459E
:1006E000F4DB2078C0060AD52046AFF3008006E090
:1006F000D4E9012130209047206A401C2062381E36
:10070000A7F10107F4DC07E0D4E9012118F805009E
:100710009047206A401C2062281EA5F10105F3DCE9
:100720002046AFF300802078000602D50220BDE805
:10073000F0870120FBE7000001694A1C026108788C
:10074000704700B58FB0CDE9013100210591054911
:100750007944CDE9031011466846FFF70FFE0FB04C
:1007600000BD0000E5FFFFFF10B5436913B1AFF313
:10077000008001E0FFF736FE012010BD127800F185
:1007800024010A7000224A700122EDE711684FF03F
:10079000FF32E9E7074B70B50D467B44FFF7D1FF09
:1007A0000446284600F008F810B14FF0FF3070BD45
:1007B000204670BDE7210000007B00F080007047FC
:1007C00010B542485421FFF733FF41485421FFF749
:1007D0002FFF40485421FFF72BFF3F493B483C4A3D
:1007E0003F4B08603D490A603A491960531C036554
:1007F000481C1065012008653B48344A39A17844FB
:1008000000F008FA20B9384878440A3800F0A7FA0E
:1008100037482F4A35A1784400F0FCF920B9344814
:1008200078440A3800F09BFA32482A4A2FA17844CB
:1008300000F0F0F920B92F4878440A3800F08FFA18
:1008400040232248DC000021224600F0BFF920B1FD
:1008500025487844543800F082FA1D482246402347
:10086000002100F0B3F920B121487844543800F059
:1008700076FA184822461023002100F0A7F9002834
:1008800006D01C487844BDE81040563800F067BADE
:1008900010BD104870B5006D20F001040B4800F049
:1008A0002FFA0B4800F02CFA0A4800F029FA09E068
:1008B000206D20F00105204600F022FA204600F0CD
:1008C00073F82C46002CF3D170BD000058D40020E2
:1008D000ACD4002000D50020AC000020B0000020E7
:1008E000B4000020720000007B3900007700000097
:1008F00067390000533900000EB5CDE90001FFF75C
:10090000D7FD029069460120ABBE0EBD08B5694611
:1009100000900220ABBE08BD1FB58DE807006946F8
:100920000520ABBE04B010BD1FB58DE80F006946B1
:100930000620ABBEF6E708B5694600900920ABBEBD
:1009400008BD1CB5CDE9000169460A20ABBE1CBD3F
:10095000704708B5694600900C20ABBE08BD7546CF
:1009600000F004FAAE4605006946534620F0070041
:10097000854618B020B5FFF7E3FCBDE820404FF0F6
:1009800000064FF000074FF000084FF0000B21F079
:100990000701AC46ACE8C009ACE8C009ACE8C00946
:1009A000ACE8C0098D46704770B50446051F00F0DD
:1009B000E3F90068002C14BF446870BD002C18BF18
:1009C000AC423CBF20466468F8D301680A18AA42CA
:1009D00018BF456003D12A680546114401602868A4
:1009E0004119A1421CBF6C6070BD616869602168DB
:1009F0000844286070BD2DE9F04705460C46C868DC
:100A000020F4201040F48000C860800602D508461B
:100A100000F0FFFAE06841F282014FF0FF39014037
:100A2000022903D0204600F09DFAB5E000F42041F1
:100A3000B1F5004F0FD1C00306D56168E06A884266
:100A400000D80846606006E02069E0626060606986
:100A5000FFF77FFFA061A0680022EEB200280DDA48
:100A6000E1688B050AD4C043A06041F49030226055
:100A7000E0606068411C61600670A5E0E068904637
:100A8000226040F40050E060206968BB6069FFF7B5
:100A900052FF012704F12405A0B1A08910F4407F82
:100AA00008D0E06900F0B3F9206118B1E06840F4C3
:100AB000006016E0E7612561E06820F4407040F4D2
:100AC00080600EE0E06900F0A2F900282061F1D01A
:100AD000E06840F4006010F4407FE06002D140F430
:100AE0008070E06020696060E06825696FF0010A4D
:100AF000C1051FD56168E06A884200D80846411BDD
:100B000004D02246284600F037FAF0BBE068010224
:100B100003D5E562C4E9015854E0691CE1626160F3
:100B2000E16940F48030491EC4E9021030462E705D
:100B3000BDE8F087010202D500F480320AE0606867
:100B4000411C61600670E0680A2E40F48030E0606D
:100B500006D00022E16A6068814203D90B4602E0B8
:100B60000122F7E70346A7895B1B7F0503D4E769EA
:100B70009F4200DDE2B1814200D80146E5620F1AD2
:100B8000C4E90158002B09DD00E005E022461946C2
:100B9000284600F0F1F908B14846C9E747B1A06915
:100BA000E5626560C01BA061E06840F01000E06095
:100BB000E068000208D56168A069E562491B084445
:100BC0006560A0615046B3E73046B1E770B5C468D0
:100BD000A50713D0650211D4B2F5807F09D0B2F514
:100BE000007F06D0B2F5806F08D1012300F1240107
:100BF00006E05D1E6FF07F46B54201D3012070BD57
:100C00000161C361416024F470611143C16000203F
:100C100070BD00002DE9F0410C460746164610460F
:100C200000F06EF82078611C61280AD0722802D08A
:100C300077283CD102E00125002405E002250424A8
:100C400002E0082448F2020511F8010B2B2806D017
:100C5000622809D011F8010C74280AD00BE045F085
:100C6000030544F00204EFE745F0040544F00104F5
:100C7000EAE744F0100438462146FFF73DFE411CE8
:100C800015D00021316171604FF40071F560F161A0
:100C90007061200704D530460222002100F0E6F8FA
:100CA000306D40F0010030653046BDE8F081002035
:100CB000FBE72DE9F0410D460646104C206DC107BB
:100CC00004D0410804D020F00104F7E722460EE0EA
:100CD000542000F09CF807000ED0206D47F0010171
:100CE0000843542120653846FFF7A2FC3A462946BE
:100CF0003046BDE8F0418DE70020D6E758D400200B
:100D00002DE9F04704464FF000094FF0FF37C56862
:100D1000D4E90486A80707D0204600F057F93046EA
:100D2000FFF7F4FD002802DA3846BDE8F087280511
:100D300002D54046FFF738FE4C212046FFF778FCED
:100D4000206D20F0010020654846EEE710B504460E
:100D5000AFF300802046BDE81040FFF780BA10B521
:100D600000F07EF9BDE8104000F074B9004870470B
:100D700054D5002070470000004870475CD5002023
:100D8000704770477047704738B504460A460020E0
:100D90006946AFF30080002808BF38BD02460099BD
:100DA000204600F084F9012038BD012000F0D3B9BD
:100DB000F8B5AFF30080054600200C46102000BFB8
:100DC0000646A819A0420DD9324669460020AFF365
:100DD0000080070008BF00F0BEF90098A04218BFCD
:100DE0000546C419FFF7C8FF05600746F01D20F04F
:100DF00007004619284600F053F9B44208BFF8BD71
:100E0000A21B31463868BDE8F84000F050B970B513
:100E10000646FFF7B1FF056806F10B0020F0070456
:100E2000B4429CBF002070BD2B466A68BAB11068FE
:100E3000A04210D304F1080188423CBF50685860BA
:100E400007D35168101941601168091B016058608F
:100E50001460101D70BD13465268002AE7D1214668
:100E60002846FFF791FF0028DED170BD2DE9F04143
:100E7000044616460D464769007B80072ED038464B
:100E8000FFF759FD50BB3EB3012E02D0022E25D1F3
:100E900004E0204600F025F905441DE03846FFF740
:100EA00058FDE168002841F01001E16005DA2046B4
:100EB00000F058F80120BDE8F081C9030BD5626845
:100EC000E16A914200D81146A26911442269891A47
:100ED000814200DD08460544002D01DA0220EAE7E0
:100EE000E16A6068E268814206D29103E06203D55C
:100EF00022F4003141F01002A6690027AE4213DC53
:100F0000E16A814201D90B4600E0034603EB060C7F
:100F10002369ACEB030CAC4506DD814201D98C465C
:100F200000E084469C4505D1A760276042F0200080
:100F3000A5620DE0AD1BE669AE1B8142A66000D93B
:100F40000846C01A281A20605819606022F0200054
:100F500003490840E060002084F84870ABE70000D7
:100F6000BFCFD7FFC16821F4001141F08001C160FB
:100F700000218160016070472DE9F04781461446E9
:100F80000E464FF0FF383248D5685769054209D000
:100F90003846A169FFF7D5FC002811DB2C48C04377
:100FA0000540E5602B46324649463846FFF7B4FC1B
:100FB000A16920F00042B21A11440028A16103D0B7
:100FC0002046FFF7CFFF4046BDE8F08770B50446E6
:100FD0000569C06A6168884200D80846E16821F462
:100FE0002011E160C90312D5A84208D02246411B56
:100FF0002846FFF7C1FF10B14FF0FF3070BD002051
:10100000E562C4E90150E06820F48030E06000202F
:1010100070BD10B50446C06820F02000E060A16AF1
:10102000A06988420DD02046FFF7D0FFE06820F489
:10103000405040F01000E060A06AA0612069E062CA
:10104000606044F24001E0688843E06010BD000049
:1010500010000200002801D000F01CB8704700000A
:1010600010B5014602A000F05DF8012010BD00009F
:1010700053494752545245443A2052656469726557
:1010800063743A2063616E2774206F70656E3A2036
:101090000000000001491820ABBEFEE72600020058
:1010A00000210160C0E9011070471020704703461D
:1010B00040688C46002818BF88423CBF0346406801
:1010C000F8D318681844884207D00CF1030020F0C8
:1010D0000700001D411A521A0146081D0A60FFF759
:1010E00063BC10B50146C268900703D0900607D5CF
:1010F000886A0AE000F03EF801210160881E10BDF8
:101100008B69486818440B69C01A91F848301BB1C4
:1011100091F84910401A10BD1103FCD50028FADDE2
:10112000401E10BD70B505460C460A2000E06D1C3F
:1011300000F018F835B128780028F8D102E0641CD6
:1011400000F010F814B120780028F8D1BDE8704004
:101150000A2000F007B810B500F010F8BDE8104004
:10116000FFF778BF08B569468DF800000320ABBED5
:1011700008BD00000048704754D5002010B5012874
:1011800005D0002103A0FFF7CDFF012010BD09A16C
:10119000F8E7000053494752544D454D3A204F75EA
:1011A00074206F662068656170206D656D6F72795F
:1011B000000000003A2048656170206D656D6F7217
:1011C0007920636F7272757074656400FEE70000C9
:1011D000344908B5086840F080500860086800F09D
:1011E000805000902F481038026842F001020260DF
:1011F000026802F001020092026842F002020260FC
:10120000026802F002020092026842F004020260E8
:10121000026802F004020092026842F008020260D2
:10122000026802F008020092026842F010020260B6
:10123000026802F010020092026842F0200202608E
:10124000026802F020020092026842F0400202604E
:10125000026802F040020092026842F080020260DE
:10126000006800F080000090086840F0020008600C
:1012700008680D4900F0020000900120086009484C
:10128000001D016841F010010160016801F01001CA
:101290000091016841F480110160006800F4801041
:1012A000009008BD403802403C0E4742F8B5274B3D
:1012B00000250421A3F254728801009502F012FA6D
:1012C000040040D022A102F043F8234E0421A6F1ED
:1012D000FC037460A3F56A722020009502F002FA04
:1012E000040030D01DA102F033F8B460A6F1A803C9
:1012F000A3F55F7204212020009502F0F3F90400A9
:1013000021D013A102F024F87460A6F15403A3F5D0
:10131000547204218020009502F0E4F9040012D0F8
:101320000FA102F015F83461002406F1200504EB4A
:10133000840005EB800001F00DFF641CE4B2052C75
:10134000F5D30020F8BD0120F8BD000084D20020B4
:101350005561727400000000D4D300204B65790001
:101360004C63640070470000064A10B552F8200034
:101370000023012202F0A6FB012801D0012010BDAC
:10138000002010BDFCC20020F8B500250E46691EE5
:101390000B466A46284602F09BFC012803D1009CBC
:1013A000344200D025462846F8BD0000044A02EB2E
:1013B000C00152F83000898889B200F01FB90000DE
:1013C000044100080A460E2808D2054B03EBC00171
:1013D00053F83000898889B200F015B970470000D1
:1013E0000441000830B587B00546002404EB4400F2
:1013F00055F83010009105EBC001486801908868ED
:101400000290C8680390086904904869059069468D
:10141000009800F005F8641C0E2CE7D307B030BD2F
:101420002DE9F84FDFF8A091002209F1040A0AF132
:10143000040B4FF00F080BF1040E01264B68964089
:101440003340B34271D18C68022C01D0122C11D1DF
:10145000D40800EB84073D6A5407E40E08FA04FC44
:1014600025EA0C05D1F814C00CFA04FC4CEA050C72
:10147000C7F820C007685400032591F808C0A540AC
:101480000CF0030CAF430CFA04FC4CEA070CC0F858
:1014900000C08F68012F05D0022F03D0112F01D07B
:1014A000122F11D18768D1F810C0AF430CFA04FC99
:1014B0004CEA070CC0F808C04768B7430E7AC6F379
:1014C000001696403E434660C668AE43CD68A540D0
:1014D0003543C5608C68E4006FD53C4C256845F405
:1014E00080452560246822F0030504F480440094BC
:1014F000374C2E19D6F808789407250F08FA05F40A
:10150000A743344CA04201D100242EE0324CA0422B
:1015100001D1012429E0314CA04201D1022424E070
:101520002F4CA04202D103241FE046E02D4CA042E4
:1015300001D1042419E02C4CA04201D1052414E06F
:101540002A4CA04201D106240FE0294CA04201D12F
:1015500007240AE0274CA04201D1082405E0264CCC
:10156000A04201D1092400E00A24AC403C43C6F863
:101570000848D9F800404D468E689C43F60300D5D4
:101580001C432C60DAF8004055468E689C43B60335
:1015900000D51C432C60DBF800405D468E689C4300
:1015A000F60200D51C432C60DEF8004075468E68BC
:1015B0009C43B60200D51C432C60521C102AFFF439
:1015C0003CAFBDE8F88F0000003C014044380240C9
:1015D00000300140000002400004024000080240C8
:1015E000000C0240001002400014024000180240AB
:1015F000001C024000200240002402400069084014
:1016000000D0012070470AB1816170470904FBE7EF
:10161000014800687047000000000020024801688F
:10162000491C016070470000000000200B4810B505
:10163000016841F400710160016841F4806101605A
:10164000016841F480710160032000F047F80F2029
:1016500000F006F800F015F8002010BD003C024034
:1016600010B5044600F094F94FF47A71B0FBF1F034
:1016700000F09CFB00222146501E00F00FF80020D5
:1016800010BD704700F01F02012191404009800009
:1016900000F1E020C0F8001170470000F0B40E4BDC
:1016A0001B68C3F30223C3F10704042C00D90424EC
:1016B0001D1D072D01D2002300E0DB1E012606FAC6
:1016C00004F56D1E0D409D409E40761E164045EA75
:1016D0000601F0BC00F0D6BC0CED00E0064A00F0BC
:1016E000070110684FF6FF03184040EA0120034944
:1016F00008431060704700000CED00E00000FA05A0
:101700002DE9F8431D48016841F0805101600068EF
:10171000012700F080500090380490FAA0F0DFF824
:101720006080B0FA80F048F82070FFF771FF04463F
:101730004FF47A75134E04E0FFF76AFF001BA842CE
:1017400013D87068C003F7D54FF4003090FAA0F0BA
:10175000B0FA80F048F82070FFF75AFF044607E01F
:10176000FFF756FF001BA84202D90320BDE8F8830B
:1017700070688003F4D50020F8E70000403802408C
:1017800000000E42007000402DE9F05FDFF8F8A184
:1017900004460F46DAF80000DFF8F08100F00F028F
:1017A000C8B27A49814641F2883608F10808BA423F
:1017B00061D202468AF80020DAF8000000F00F003B
:1017C000B8427DD12078800707D5D8F80020A368DB
:1017D00022F0F0021A43C8F800202078C0072DD06C
:1017E000606801281AD002281BD0032819D0096884
:1017F0008907002964DAD8F80010474621F0030170
:101800000143C8F80010FFF703FF05466068012890
:101810000FD0022818D003281CD027E009688903BC
:10182000E7E709688901E4E7FFF7F2FE401BB042F1
:1018300058D83868C0F381000128F5D188E0FFF757
:10184000E7FE401BB0424DD83868C0F38100022843
:10185000F5D17DE03868FFF7DBFE401BB042F9D9D7
:1018600040E0FFF7D5FE401BB0423BD8386810F08F
:101870000C0FF6D16CE02078800707D5D8F800204F
:10188000A36822F0F0021A43C8F800202078C007AD
:101890004CD06068012828D0022829D0032827D0FE
:1018A00009688907002949DAD8F8002022F00302E4
:1018B0000243C8F80020FFF7ABFE0546606800E071
:1018C0003CE001281DD0022829D0032838D0B34697
:1018D0004646306810F00C0F28D0FFF799FE411BE8
:1018E0005945F6D90320BDE8F09F09688903D9E777
:1018F00009688901D6E7FFF78BFE411B594502D9DC
:10190000F0E7B34646463068C0F381000128F2D1C3
:101910000CE0FFF77DFE411B594502D9E2E7B346D3
:1019200046463068C0F381000228F2D18AF8009060
:10193000DAF8000000F00F00B84209D00120D2E729
:1019400044462068FFF764FE401BB042F9D9C9E75E
:101950002078400707D5D8F80010E26821F4E0515C
:101960001143C8F800102078000708D5D8F80010F7
:10197000226921F4604141EAC201C8F800100F2039
:10198000FFF76EFE0020AEE7003C02400038024048
:1019900010B500F043F808490968F02292FAA2F263
:1019A00001F0F001B2FA82F2D140044A515CC84021
:1019B0000349086010BD000008380240A23F00083B
:1019C0000400002010B5FFF7E3FF074909684FF452
:1019D000E05292FAA2F201F4E051B2FA82F2D1405E
:1019E000024A515CC84010BD08380240A23F0008BE
:1019F00010B5FFF7CDFF074909684FF4604292FA2E
:101A0000A2F201F46041B2FA82F2D140024A515C82
:101A1000C84010BD08380240A23F000830B5194840
:101A2000006810F00C01184812D0184C04290ED090
:101A300008290DD1134A121F1168136801F03F01E4
:101A40005D0247F6C07304D5B4FBF1F003E0204615
:101A500030BDB0FBF1F01168194093FAA3F3B3FA6B
:101A600083F3D940484311684FF4403292FAA2F20E
:101A700001F44031B2FA82F2D140491C4900B0FB76
:101A8000F1F030BD083802400024F40040787D01B8
:101A90002DE9F84F04460078DFF8FCA2BF4DC007DF
:101AA0004FF0000648D0DAF800105046C1F381012B
:101AB000012908D00068C0F3810002280AD1281D3E
:101AC0000068400206D52868800335D56068002884
:101AD00073D031E0DFF8C49209F1020989F800609F
:101AE000FFF796FD074641F2883804E0FFF790FDC6
:101AF000C11B41457AD828688003F7D4207989F83A
:101B00000000606860B1FFF783FD074604E0FFF75F
:101B10007FFDC11B4145EDD828688003F7D50BE058
:101B2000FFF776FD074604E0FFF772FDC11B414554
:101B3000E0D828688003F7D42078DFF86492800723
:101B400044D5DAF80010504611F00C0F4FF0F808A9
:101B500009D00068C0F3810002280BD18E48001F15
:101B60000068400206D42868800714D5E068012880
:101B700023D110E0E068D0B10120C9F80000FFF7E0
:101B800047FD074604E0FFF743FDC01B6428B1D8BA
:101B900028688007F7D5286898FAA8F22169B2FA70
:101BA00082F220F0F8009140084328600EE0C9F866
:101BB0000060FFF72DFD074605E0EAE0FFF728FD8E
:101BC000C01B642812D828688007F7D42078000743
:101BD00025D5DFF8C4817348616908F16C0881B1CB
:101BE00001210160FFF714FD074605E07EE0FFF7E5
:101BF0000FFDC01B642879D8D8F800008007F6D5FF
:101C00000DE00660FFF704FD074604E0FFF700FD66
:101C1000C01B64286AD8D8F800008007F6D4207862
:101C2000400753D55C483830016841F0805101606D
:101C30000068DFF8748100F080500090D8F8001040
:101C400041F48071C8F80010FFF7E2FC074604E099
:101C5000FFF7DEFCC01B642848D8D8F80000C00598
:101C6000F6D5DFF834B10BF1680B8BF80060FFF7A5
:101C7000CFFC074641F2883804E0FFF7C9FCC11BDE
:101C800041457ED8DBF800008007F6D4207A8BF837
:101C90000000A06868B1FFF7BBFC074604E0FFF74F
:101CA000B7FCC11B41456CD8DBF800008007F6D5B6
:101CB0000CE0FFF7ADFC074604E0FFF7A9FCC11BF1
:101CC00041455ED8DBF800008007F6D4A069E8B390
:101CD000DAF80010C1F3810102295AD0022806D097
:101CE000C9F86060FFF794FC04464DE049E04F46B8
:101CF000C9F86060FFF78CFC064604E0FFF788FC3B
:101D0000801B64283DD828688001F7D4D4E90701F6
:101D1000084347F6C07191FAA1F1626AB1FA81F104
:101D20008A40A16A4FF0FF3303EB51014FF4403377
:101D300093FAA3F3B3FA83F399400A4310434FF0A5
:101D4000706292FAA2F2B2FA82F200E01FE0E16A57
:101D5000914008431049091F086001203866FFF7C9
:101D600057FC044604E0FFF753FC001B642808D826
:101D700028688001F7D50AE0FFF74AFC001B6428B9
:101D800002D90320BDE8F88F28688001F4D4002030
:101D9000F8E70120F6E7000008380240003802406A
:101DA00000004742800E47420070004010B5401EC0
:101DB000B0F1807F01D3012010BD4FF0E0246061BD
:101DC0000F21601700F05EF90020A061072020615C
:101DD000002010BD7047F8B5016804460868CA685D
:101DE000C0F3000002F4807238B132B1086848686C
:101DF0000090E06B40F00100E0630868C0F340022F
:101E0000486900F001003AB130B1086848680090B4
:101E1000E06B40F00400E06308684A69C0F38000AA
:101E200002F0010238B132B1086848680090E06BF6
:101E300040F00200E0630868C0F3C002486900F0A7
:101E400001003AB130B1086848680090E06B40F09A
:101E50000800E0630868C0F34012C868222500F05B
:101E600020003AB130B184F83950626C12B1486840
:101E7000C0B2904720680168C068C1F3C01100F08B
:101E8000800019B110B1204600F062FC216808689A
:101E9000CA68C0F3801002F04002012668B162B146
:101EA000CA68204622F04002CA6094F839103229EC
:101EB0000CD080F8396000F069F8E06B002804D09D
:101EC00084F839602046FFF785FFF8BD80F8395067
:101ED000F1E770B5040004D094F83900002510B182
:101EE00006E0012070BD84F83850204600F020F84C
:101EF000022084F839002068C16821F40051C160D3
:101F0000204600F06BFB2068016921F490410161DB
:101F10002068416921F02A0141612068C16841F4CB
:101F20000051C160E563012084F83900002070BDD4
:101F3000704790F83910012901D0122924D190F866
:101F40003810012920D0012180F838100022C26306
:101F500090F83910122915D0222180F83910016823
:101F6000CB6843F48073CB6001684B6943F0010395
:101F70004B6180F838200068C16841F02001C160E1
:101F8000002070473221E8E7022070477047FEE7E3
:101F900070B5074D002404EB4400411928568A7897
:101FA000497800F011F8641C032CF4DB70BD0000CC
:101FB0007441000810B572B600F02AF9FFF776F9FF
:101FC00000F0AAFA62B610BD10B50446FFF766FB32
:101FD0002046BDE81040FFF755BB00000349002034
:101FE0000968C905C90D00D00120704704ED00E063
:101FF0001CB50B20FFF7DAF9052460B1ADF80040FD
:102000009DF80400062120F00300401C8DF8040018
:10201000684600F023F90A20FFF7C8F960B1ADF86F
:1020200000409DF80400062120F00C00001D8DF8F2
:102030000400684600F012F90520FFF7B7F960B117
:10204000ADF800409DF80400062120F0300010306B
:102050008DF80400684600F001F90020FFF7A6F9AA
:1020600000280CD0ADF800409DF80400062120F0B7
:10207000C00040308DF80400684600F0EFF81CBD49
:10208000FEE770470907090E002806DA00F00F0086
:1020900000F1E02080F8141D704700F1E02080F886
:1020A000001470472DE9F041DFF83880002505EB7A
:1020B000850118EB81040ED0206860B104F1080797
:1020C00078680668304601F01BF8304601F0E2F807
:1020D00020680028F4D16D1CEDB2052DE7D3BDE8D2
:1020E000F0810000F4D300202DE9F04100241646D1
:1020F0000F460546092814D89FB196B1FFF76EFF29
:10210000012807D028463246394600F039F818B180
:10211000022407E0012405E00121284600F072F8BE
:1021200000E003242046BDE8F08138B514460D00D8
:102130000DD064B11A46694600F00CF8002805D1AC
:10214000009A18322A600099898A218038BD0120BE
:1021500038BD000002460020092A0BD851B1074BB8
:1021600002EB820203EB820213682BB1D268126881
:102170000A6070470120704702207047F4D30020A6
:102180002DE9F04115465FEA0108074633D07DB3DB
:10219000FFF724FF08B102242EE0E81C4FF6FC7183
:1021A0000840183080B200F0E5FE10B30446858286
:1021B000183006462A464146FEF799F92460204623
:1021C0000024092F01D901240DE007EB87010C4AF7
:1021D000074602EB810501F05BF93946284600F01D
:1021E000DFFF01F065FE3CB1304601F053F803E03B
:1021F00001E0012400E003242046BDE8F081000056
:10220000F4D3002010B50024FFF7AEF8204610BD2F
:1022100010B51149012001F057FAD0B10E4C103C15
:1022200004F164012060012001F04EFA88B1606081
:1022300004F1B801012001F047FA50B1A06004F5A3
:1022400086720021012001F00BFA10B1E06000203D
:1022500010BD012010BD0000ACC100200A4601469F
:102260000320FFF741BF012803D000210420FFF71E
:10227000A9B80121FAE701F0D5B810B501F09EFC2C
:10228000012801D001F0D6F9BDE81040FFF7C6B92A
:1022900030B593B0FEF79CFF1A480024016841F462
:1022A000404101600068022500F440401190012087
:1022B000009001908005CDE90650192008904FF458
:1022C000B470CDE9090508200B906846FFF7E0FBE4
:1022D00000B1FEE7FFF714FA00B1FEE70F20CDE9E9
:1022E0000C054FF4A050CDE90E404FF480501090F3
:1022F00005210CA8FFF748FA002800D0FEE713B02C
:1023000030BD0000007000401048016841F47001C9
:1023100001600F48016841F0010101600C4A002191
:102320000832116002680B4B1A400260031D0A4A12
:102330001A60026822F48022026005480C300160B5
:1023400002495806803908607047000088ED00E0B7
:1023500000380240FFFFF6FE1030002410B50120C7
:10236000FFF781FF0121BDE810400320FFF72AB8E5
:1023700010B50449044800F09DFEBDE8104001205E
:1023800000F080BA092800081D280008022000F08B
:1023900079FA00F009F8042000F074FA00F012F85D
:1023A000FFF7DCFF00F017F80B210220FEF7ECFF2F
:1023B000C10702D000F028F8F6E70007F4D5FFF7D0
:1023C00017FEF1E703210420FEF7DEFFC007F9D076
:1023D00000F034F8F6E703210846FEF7D5FFC00702
:1023E000F9D000F045F8F6E70F210120FEF7CCFF09
:1023F000C10702D000F072F8F6E74007F4D50520D7
:1024000000F0E0F9F0E700001CB50020009001F0BA
:10241000CFFB0949896888420DD14FF6FF7301AAA5
:1024200069460220FFF781FE002804D1009800B120
:102430000188FFF737FE1CBDFCC200201CB5002040
:10244000009001F0B5FB0949096988420DD14FF6AA
:10245000FF7301AA69460420FFF767FE002804D134
:10246000009800B10188FFF71DFE1CBDFCC20020D2
:102470001CB50020009001F09BFB1749C9688842F9
:1024800028D14FF6FF7301AA69460320FFF74DFEDE
:1024900000281FD1009CD4B12088052817D12079AD
:1024A00000F00301012907D0C0F38101012903D005
:1024B000C0F30110012802D10120FFF7D4FE2079DA
:1024C0000121B1EB901F02D10020FFF7CCFE009854
:1024D000FFF7E8FD1CBD0000FCC200201CB5002079
:1024E000009001F065FB0949496888420DD14FF61B
:1024F000FF7301AA69460120FFF717FE002804D1E7
:10250000009800B10188FFF7CDFD1CBDFCC2002082
:10251000FFF72EFFFFF768FF3EB521481F24A0F507
:10252000D6610094CDE901100023C8221DA12048E6
:1025300001F080FA80B31F4D00233222686005F558
:10254000E460A0F57B710094CDE901101AA11C484C
:1025500001F070FA00B3A86005F27C70A0F560711C
:102560000094CDE901100023322216A1174801F092
:1025700061FA88B1E86005F5FB60A0F5457100944B
:10258000CDE901100023802211A1134801F052FA75
:1025900010B1286100203EBDFFE70120FBE70000ED
:1025A000C0C90020556172745461736B0000000053
:1025B00011250008FCC200204B65795461736B0043
:1025C0008D2300084C65645461736B00A1230008DF
:1025D0004C63645461736B00972300082DE9F0414C
:1025E000044600680169E26821F440510A4302612F
:1025F0002068C16849F20C6291432369A268E569C9
:102600001A4363692B431A430A43C2602068416935
:1026100021F44072A16911434161E06964263225C9
:10262000B0F5004F484A494920681DD0884201D082
:10263000904269D1FFF7DCF900EBC00101EB00101B
:102640006168B0468900B0FBF1F1B1FBF8F6FFF725
:10265000CFF900EBC00101EB001061688900B0FB0D
:10266000F1F7FFF7C5F968E0884201D0904219D12F
:10267000FFF7BEF900EBC00101EB00106168B04646
:102680004900B0FBF1F1B1FBF8F6FFF7B1F900EB4F
:10269000C00101EB001061684900B0FBF1F7FFF7E2
:1026A000A7F918E0FFF78EF900EBC00101EB00106D
:1026B0006168B0464900B0FBF1F1B1FBF8F6FFF7F5
:1026C00081F900EBC00101EB001061684900B0FB2B
:1026D000F1F7FFF777F900EBC00101EB001061683B
:1026E0004900B0FBF1F1B1FBF8F06FF0180148437D
:1026F00007EB800005EB0011B1FBF8F0216866F3F1
:102700001F108860BDE8F081FFF75CF900EBC001A5
:1027100001EB00106168B0468900B0FBF1F1B1FB3C
:10272000F8F6FFF74FF900EBC00101EB001061680C
:102730008900B0FBF1F7FFF745F900EBC00101EBB1
:10274000001061688900CCE70014014000100140CE
:1027500090F83910122903D0322901D00220704795
:102760008168B1F5805F016A0BD04A1C0262026881
:1027700009785160C18C491E0904090CC1840ED02E
:1027800017E009880268C1F3080151600169002956
:10279000016A02D0491C0162ECE7891CFBE7016871
:1027A000CA6822F08002CA600068C16841F0400136
:1027B000C1600020704700000148FFF70CBB00001B
:1027C000C803002010B50E4800F06EF830B90C496F
:1027D0004FF4007210310A4800F073F8084800F016
:1027E0006BF80204120C0AD04FF48070824200D9B8
:1027F0000246BDE810400349014800F09FB810BDF3
:10280000B8000020C802002001B501226946024834
:1028100000F06FF808BD0000B80000207047FEE728
:1028200010B503240020054B024603EB0011401CA9
:10283000C0B20A70A042F8D310BD00007C00002096
:102840002DE9F041032600250D4FA84607EB05149E
:10285000207870B16068052803D3401F606002D003
:1028600007E0C4F80480A07AE168FFF7CBFC208978
:1028700060606D1CEDB2B542E8D3BDE8F0810000A8
:102880007C00002070B503240021064D012305EBD8
:102890000112967A864200D11370491CC9B2A14236
:1028A000F5D370BD7C000020002804D0D0E90021C1
:1028B0008068891A401A7047002801D003C8081A96
:1028C000704770B5164604000CD0002566B1E16073
:1028D000080006D01146FDF789FE2560C4E90156BF
:1028E000012070BD002070BD25606560A560C560D9
:1028F000F8E72DE9F04104460F46D4E900010B1A30
:10290000A068C51AAA4200D21546B1FBF0F200FB3E
:102910001211461AAE4200D92E46E06832460844EB
:102920003946FDF7E4FDAA1BB919E068FDF7DFFDA4
:102930006068284460602846BDE8F0812DE9F041D8
:1029400004460E46D4E90010451AAA4200D21546A4
:10295000A068B1FBF0F200FB1211471AAF4200D998
:102960002F46E0683A4601443046FDF7C0FDEA1BB9
:10297000F019E168FDF7BBFD206828442060284677
:10298000BDE8F0818A68002A01DCFEF734B8521EE7
:102990008A604A68C0B2531C4B60107070470000D8
:1029A00010B5FEF743FEFFF773FC0648FEF71AFD6D
:1029B000FFF736FFFFF7FEFAFFF7EAFAFFF75BFCD7
:1029C000002010BDB43F00082DE9F041184E0F461D
:1029D0000446F5683068001D00F092FB38B9306895
:1029E00090F82C1001208840316981433161601CCE
:1029F00007D137B13168BDE8F0410E48091D00F03C
:102A0000CFBB30682C44AC424460316805D2B06B17
:102A1000BDE8F041091D00F0ABBB706B091D00F073
:102A2000A7FBB06A844200D2B462BDE8F081000026
:102A300018000020240700202DE9F041054600F091
:102A4000BBFB2D4EB068401CB06030682B4F10B1FE
:102A5000706930B32BE03560B068012827D10024BD
:102A600004EB840007EB800000F074FB641C202C56
:102A7000F6D3234800F06EFB2148143000F06AFBC7
:102A80001F48283000F066FB1D483C3000F062FB18
:102A90001B48503000F05EFB194870631430B0637F
:102AA00005E03068E96AC06A884200D83560706A1B
:102AB0000121401C70626864E86A326981401143F8
:102AC000316100EB800007EB8000291D00F068FBFE
:102AD00000F0AEFB706900280CD03068E96AC06A6B
:102AE000884207D207494FF080500860BFF34F8FEC
:102AF000BFF36F8FBDE8F081180000205404002060
:102B0000D406002004ED00E070B5124E124D1CE01A
:102B100000F0BEFC306820B1002401F0C9F9A4B96E
:102B200001E00124F9E700F047FBF068C468201DCC
:102B300000F0E6FAA868401EA8606868401E686059
:102B400000F076FB204600F03FF868680028DFD1EF
:102B500070BD000010070020180000202DE9F04192
:102B6000856B174604460026026C82B1C7B1E06847
:102B7000FDF7BDFCE168206C091AE1602268914212
:102B800002D26168081AE060022F16D017E02068B0
:102B9000A8B9606801F0E2F80646002060600EE027
:102BA000A068FDF7A4FC216CA0680844A0606168DF
:102BB000884204D32068A06001E005B16D1E6D1C41
:102BC000A5633046BDE8F08110B5044690F8590081
:102BD00058B101280CD002280FD0BDE810404FF4A6
:102BE000656206A10BA0FDF7BDBB206B00F052FB98
:102BF0002046BDE8104000F04DBB10BD4C69625C42
:102C00004672656552544F535C7461736B732E63E7
:102C1000000000004572726F723A25732C25640D16
:102C20000A00000010484FF43841420706D0C01D8A
:102C30000D4920F00700411AC1F538410B4A002325
:102C40000144C2E900030839103A21F0070111607C
:102C50004B600B600B1AC0E9001393604FF000400B
:102C60005360D060704700003807002064000020E7
:102C7000074E4FF08054074DFFF746FF306801289C
:102C8000FAD92C60BFF34F8FBFF36F8FF4E70000CA
:102C90005404002004ED00E0002807D0002141602A
:102CA00001600B460A46C16000F0B8BD704770B5C0
:102CB0001D46049C59B12260C4E90F010121204640
:102CC00000F056FD84F850500020A06470BD2460D0
:102CD000F2E700002DE9F047DDE909840E461746CA
:102CE000824691009946089DA522206BFDF776FC4F
:102CF0006FF00301206B01EB8701084420F0070708
:102D0000780705D040F22B3219A11FA0FDF72AFB4E
:102D100000202218315C82F83410315C11B1401C63
:102D20001028F6D3002684F84360202D00D31F25F9
:102D3000E562C4E91356201D00F017FA04F11800EB
:102D400000F013FA2461C5F120006462A061666599
:102D500084F858604A465146384600F095F920609C
:102D6000B8F1000F01D0C8F80040BDE8F0870000BE
:102D70004C69625C4672656552544F535C74617372
:102D80006B732E63000000004572726F723A2573F8
:102D90002C25640D0A00000030B5114900E01146F1
:102DA0000A688242FBD34B685C18844203D14068B6
:102DB00018444860084643681C18944209D1084CDE
:102DC000103C2468A24209D052681A4442600A6842
:102DD00012680260814200D0086030BD0460F9E7EB
:102DE000640000202DE9F34100980F460026846C12
:102DF0002CB940F6CE1216A11BA0FDF7B3FAA06BBA
:102E0000E16B884205D340F6CF1211A116A0FDF761
:102E1000A9FAA06BE16B88420CD294F945503A466E
:102E200069462046FFF79AFE0646681C05D06D1CD1
:102E300084F845503046BDE8FC81606A0028F9D02E
:102E400004F1240000F0E6FF0028F3D00126F1E7AA
:102E50004C69625C4672656552544F535C7175658E
:102E600075652E63000000004572726F723A25731B
:102E70002C25640D0A0000000648416B096829B141
:102E8000416BC968C9684968816270474FF0FF317A
:102E9000FAE700001800002008484068401C05D0F0
:102EA0004FF4907206A111A0FDF75CFA502080F358
:102EB0001188BFF34F8FBFF36F8FFEE76C000020C8
:102EC0004C69625C4672656552544F535C706F7218
:102ED0007461626C655C525644535C41524D5F4371
:102EE0004D34465C706F72742E6300004572726FD1
:102EF000723A25732C25640D0A0000002DE9F0417B
:102F0000044600F059F994F9455004F1240610E004
:102F1000A06C20B100212046FFF764FF04E0606A46
:102F200048B1304600F076FF08B100F023FA6D1E7C
:102F30006DB2002DECDC4FF0FF3684F8456000F0F8
:102F400077F900F039F994F9445004F1100709E0D9
:102F5000206948B1384600F05DFF08B100F00AFA78
:102F60006D1E6DB2002DF3DC84F84460BDE8F041C5
:102F700000F05EB92DE9F0410546002600F088FA20
:102F8000324F386808B9FFF74DFEF86805424FD157
:102F9000002D4DD0083568070BD005F00700C0F1B3
:102FA00008000544680704D0BF2229A132A0FDF71C
:102FB000D9F9002D3CD07868854239D823491031A1
:102FC0000846046801E0214604466068A84202D22F
:102FD00020680028F7D13868B846844228D00E68A7
:102FE0002068086060680836401B10280ED96719F1
:102FF000780704D0EC2216A11FA0FDF7B3F9606892
:10300000401B786038466560FFF7C6FE6168D8F8F7
:1030100004004246401AC8F80400D8F80830984224
:1030200000D29060D8F80C0001430020C4E90001F0
:1030300000F03EFF700705D04FF4967204A10EA079
:10304000FDF790F93046BDE8F08100005400002003
:103050004C69625C4672656552544F535C706F7286
:103060007461626C655C4D656D4D616E675C686531
:1030700061705F342E6300004572726F723A25737F
:103080002C25640D0A00000010B5031F4FF080745A
:103090001C601B1F21F001011960191F044B0B60FC
:1030A00014390A60091F6FF0020244380A6010BD2B
:1030B000992E0008104A10B50E4B13604FF4E133FF
:1030C000536000239360D360136193610C235361B9
:1030D000C2E910011046FEF7FCFE0748FEF729FF83
:1030E0000649BDE810404FF40072A1F11000FFF74F
:1030F000E8BB000000100140C8030020C800002009
:10310000D0E9013201699A60D0E901235A604A6826
:10311000824201D182684A60002202610868401E32
:1031200008607047034B036003F15C000860822075
:103130001060704738BF002005490878401CC0B2B5
:103140000870052803D100200870FFF779BB70478D
:103150007800002000F108014FF0FF32C0E90112B1
:10316000C160016100210160704700210161704769
:1031700030B50C68621C02D000F1080202E002695E
:1031800004E01A4653681D68A542FAD953684B609B
:1031900099608A60516008610168491C016030BD16
:1031A00042684A6093688B609368596091600861D7
:1031B0000168491C01607047502080F31188BFF3FB
:1031C0004F8FBFF36F8F09494868401C4860012842
:1031D0000AD10748006810F0FF0F05D04FF4E572E0
:1031E00004A10FA0FDF7BEB8704700006C000020DE
:1031F00004ED00E04C69625C4672656552544F53C1
:103200005C706F727461626C655C525644535C41D1
:10321000524D5F434D34465C706F72742E630000F4
:103220004572726F723A25732C25640D0A000000F6
:1032300010B5084C606828B940F2D11206A111A05F
:10324000FDF790F86068401E606001D180F311883E
:1032500010BD00006C0000204C69625C4672656520
:1032600052544F535C706F727461626C655C52565D
:1032700044535C41524D5F434D34465C706F7274F1
:103280002E6300004572726F723A25732C25640D0F
:103290000A00000070B500282AD0164DA0F10804DD
:1032A0006068E968084205D14FF4A07212A11CA021
:1032B000FDF758F8206828B140F241120EA118A07D
:1032C000FDF750F86068E968084211D02268002ACA
:1032D0000ED18843606000F0DBF8606869680844DC
:1032E00068602046FFF758FDBDE8704000F0E0BD83
:1032F00070BD0000540000204C69625C4672656538
:1033000052544F535C706F727461626C655C4D65B2
:103310006D4D616E675C686561705F342E6300009F
:103320004572726F723A25732C25640D0A000000F5
:1033300006484FF47A710068B0FBF1F14FF0E020DD
:10334000491E41610721016170470000040000200F
:1033500010B5074B002253F832401CB1521C082A0A
:10336000F9D310BD43F8321003EBC201486010BD21
:103370001404002001490120C86170471800002092
:1033800070B50D46040005D140F62E3207A10DA000
:10339000FCF7E8FF0F48016820461831FFF7E8FE08
:1033A0002846BDE870400121FFF70EBB4C69625C06
:1033B0004672656552544F535C7461736B732E6330
:1033C000000000004572726F723A25732C25640D5F
:1033D0000A0000001800002010B5040005D140F6D6
:1033E000E83205A10AA0FCF7BDFF0D48016A216083
:1033F000C068606010BD00004C69625C4672656523
:1034000052544F535C7461736B732E630000000061
:103410004572726F723A25732C25640D0A00000004
:103420001800002010B586B00024039405AA04A952
:1034300003A80494FFF776FEDDE903010094CDE9CB
:10344000011000230EA11048059A00F0F3FA0F496D
:103450000028C86211D0502080F31188BFF34F8F2D
:10346000BFF36F8F4FF0FF30886201204861CC605E
:1034700006B0BDE8104000F053B806B010BD000023
:1034800049444C4500000000712C00081800002041
:103490000248016B491C01637047000018000020BE
:1034A00070B5134D286B10B10120E86170BD00208C
:1034B000E86128690F4EB0FA80F0C0F11F0000EB00
:1034C000800456F8240028B940F61E320AA110A044
:1034D000FCF748FF06EB840000F1080241684968E8
:1034E0004160914201D149684160C868286070BD5F
:1034F00018000020540400204C69625C4672656527
:1035000052544F535C7461736B732E630000000060
:103510004572726F723A25732C25640D0A00000003
:103520001CB5304C20683049884205D14FF4B57243
:103530002EA139A0FCF716FF20682B49491E8842AE
:1035400005D140F26B1229A133A0FCF70BFF364CDA
:1035500020780190FF20207020788DF800009DF8E1
:1035600000009DF8001000F0F000884205D04FF4F4
:10357000C2721EA128A0FCF7F5FE9DF800002B4AA0
:1035800000F0500010700720906007E09068401E27
:1035900090609DF8000040008DF800009DF800004C
:1035A0000006F3D4107A000200F4E0609060019805
:1035B00020700C482030016841F4700101600168FE
:1035C00041F070410160FFF7B3FE00205060FCF74E
:1035D0006DFE1748016841F040410160FCF756FE5E
:1035E00000201CBD00ED00E071C20F414C69625C1F
:1035F0004672656552544F535C706F727461626CB1
:10360000655C525644535C41524D5F434D34465CB9
:10361000706F72742E6300004572726F723A257378
:103620002C25640D0A00000000E400E06C0000207E
:1036300034EF00E010B5502080F31188BFF34F8FB6
:10364000BFF36F8F00F0C8FA18B104494FF08050F3
:103650000860002080F3118810BD000004ED00E038
:10366000F8B516460C46050005D140F2A1220CA182
:1036700011A0FCF777FEAC4205D940F2A22208A1C6
:103680000DA0FCF76FFE0220002200903346114689
:10369000284600F027F8002800D08463F8BD000019
:1036A0004C69625C4672656552544F535C71756536
:1036B00075652E63000000004572726F723A2573C3
:1036C0002C25640D0A00000038B50B46002200903E
:1036D0001146012000F006F80446FFF7DDFA204607
:1036E00038BD00002DE9F843DDF820801C46164661
:1036F0000D46070005D14FF4A97213A118A0FCF7DD
:1037000031FE2CB94FF4AB720FA115A0FCF72AFEC5
:103710001EB14DB94FF4AD7202E02DB140F25B1213
:1037200009A10FA0FCF71EFE542000904CB101200F
:1037300084F8460043463246294638460094FFF74F
:10374000B6FA2046BDE8F8834C69625C467265654E
:1037500052544F535C71756575652E63000000000F
:103760004572726F723A25732C25640D0A000000B1
:1037700070B50D46040005D140F21B121CA122A019
:10378000FCF7F0FDFFF718FDD4E90F20216802FBDC
:10379000001161600021A1632168A1600A46D4E99B
:1037A0000F01401E00FB0121E16021464FF0FF3078
:1037B00001F8440F487004F110004DB1FFF7CAFC46
:1037C00004F12400FFF7C6FCFFF732FD012070BDB5
:1037D00021690029F8D000F01DFB0028F4D00E4923
:1037E0004FF080500860BFF34F8FBFF36F8FEBE750
:1037F0004C69625C4672656552544F535C717565E5
:1038000075652E63000000004572726F723A257371
:103810002C25640D0A00000004ED00E02DE9FF4FA7
:1038200083B099468B4604004FF0000605D140F264
:10383000D92252A157A0FCF795FDBBF1000F07D18B
:10384000206C28B140F2DA224CA152A0FCF78AFD8C
:10385000B9F1020F08D1E06B012805D040F2DB225C
:1038600046A14CA0FCF77EFD00F0A8F938B90598F8
:1038700028B140F2DE2241A146A0FCF773FD4FF0D3
:10388000000A4FF08057DFF81C81FFF795FCA06B12
:10389000E16B884206D3B9F1020F03D0059800B35B
:1038A00016B325E04A4659462046FFF757F9A16C62
:1038B00021B149462046FFF795FA05E0616A19B142
:1038C00004F1240000F0A6FA28B1C8F80070BFF394
:1038D0004F8FBFF36F8FFFF7ABFC012007B0BDE840
:1038E000F08FFFF7A5FC21E06846FFF775FD012684
:1038F000FFF79EFCFFF7CCFDFFF75EFC94F9440058
:10390000401C01D184F844A094F94500401C01D129
:1039100084F845A0FFF78CFC05A9684600F044F840
:1039200030B12046FFF7EAFA00F0C2FA0020D5E7EE
:10393000FFF742FCA06BE16B884201D1012500E05A
:103940000025FFF775FC95B104F110000599FFF70C
:1039500017FD2046FFF7D2FA00F0AAFA002894D10A
:10396000C8F80070BFF34F8FBFF36F8F8DE720460D
:10397000FFF7C4FA00F09CFA87E700004C69625C2C
:103980004672656552544F535C71756575652E635B
:10399000000000004572726F723A25732C25640D89
:1039A0000A00000004ED00E070B50D46040005D1EA
:1039B00040F6F23214A11AA0FCF7D4FC2DB940F65F
:1039C000F33211A116A0FCF7CDFCFFF7F5FB184A66
:1039D000D06829684B1C0FD02368126A934202D02A
:1039E000626882420AD96268801A884206D2081A3E
:1039F00028602046FFF7F0FC002400E00124FFF7D8
:103A000017FC204670BD00004C69625C467265651B
:103A100052544F535C7461736B732E63000000004B
:103A20004572726F723A25732C25640D0A000000EE
:103A3000180000202DE9F04F85B09846DDE90F54BD
:103A40000E9F91468A4683462DB940F2552213A116
:103A500018A0FCF787FC0026A4B1CDB10220256395
:103A600084F859000DF1040C04A800978CE851006B
:103A700043464A4651465846FFF72CF92046FEF782
:103A8000DBFF06E040F2562204A10AA0FCF76AFC24
:103A90000496049805B0BDE8F08F00004C69625CA4
:103AA0004672656552544F535C7461736B732E6339
:103AB000000000004572726F723A25732C25640D68
:103AC0000A0000002DE9F0411F4690460D46040013
:103AD0004FF0010605D141F22F1228A12DA0FCF7CD
:103AE00041FCFFF769FB0FB1606D386094F8580036
:103AF000022184F85810B8F1050F0ED2DFE808F063
:103B00000D03060C0A00616D294301E0616D491C3B
:103B1000616502E0022803D06565012802D028E033
:103B2000002626E0201DFFF7EBFA1E4DE06A01217A
:103B30002A698140114329611B4900EB800001EB98
:103B40008000211DFFF72CFBA06A28B141F26A1208
:103B50000AA110A0FCF706FCE06A2968C96A88423D
:103B600007D912494FF080500860BFF34F8FBFF361
:103B70006F8FFFF75DFB3046BDE8F0814C69625CFA
:103B80004672656552544F535C7461736B732E6358
:103B9000000000004572726F723A25732C25640D87
:103BA0000A000000180000205404002004ED00E08A
:103BB000014800687047000018000020054841696E
:103BC00019B1006B18B10020704701207047022026
:103BD00070470000180000202DE9F041304F00260A
:103BE000386B18B1B869401CB86150E0FD686D1CB5
:103BF000FD6011D1786B006828B140F6E31229A16D
:103C00002EA0FCF7AFFB786BB96B7963B863386AA9
:103C1000401C3862FFF730F9B86ADFF8B08085429F
:103C200009D3786B006890B1786BC068C46860682D
:103C300085420FD2B8623868C06A00EB800158F83C
:103C40002100012800D90126B86900B321E04FF016
:103C5000FF30EFE7201DFFF753FAA06A18B104F117
:103C60001800FFF74DFAE06A01213A6981401143DB
:103C7000396100EB800108EB8100211DFFF790FA0C
:103C8000E06A3968C96A8842CBD30126C9E7FFF7E1
:103C900053FAF86900B101263046BDE8F081000012
:103CA000180000204C69625C4672656552544F539F
:103CB0005C7461736B732E63000000004572726F59
:103CC000723A25732C25640D0A000000540400206C
:103CD0002DE9F0411E46154688460746FFF76CFA67
:103CE0001C4C206890F85800022814D02068416DC0
:103CF000B94341652168012081F858005EB1012176
:103D00003046FEF761FE14494FF080500860BFF363
:103D10004F8FBFF36F8FFFF78BFAFFF74DFA15B197
:103D20002068406D2860206890F8580001280ED067
:103D30002068416D21EA08014165012521680020C4
:103D400081F85800FFF774FA2846BDE8F081002595
:103D5000F4E700001800002004ED00E070B5040056
:103D60004FF000063CD01F4D2868844205D040F635
:103D7000EE621DA122A0FCF7F5FA206D28B94FF4E0
:103D80006F6219A11EA0FCF7EDFA206D401E2065A0
:103D9000E26CE16A914223D010BB201DFFF7B0F91D
:103DA0001B49012250B9E06A00EB800351F823302F
:103DB00023B92B6902FA00F083432B61E06CE062C7
:103DC000C0F12000A061E06A2B6982401A432A6199
:103DD00000EB800001EB8000211DFFF7E1F90126D7
:103DE000304670BD180000204C69625C4672656503
:103DF00052544F535C7461736B732E630000000068
:103E00004572726F723A25732C25640D0A0000000A
:103E1000540400202DE9F041C068C4682CB940F674
:103E2000883216A11BA0FCF79DFA04F11800074682
:103E3000FFF766F91B4D286B012660B139461A4819
:103E4000FFF7AEF9E06A2968C96A884213D90120F0
:103E5000EE61BDE8F081201DFFF752F9E06A2A69A2
:103E600006FA00F111432961104900EB800001EBD3
:103E70008000211DE4E70020EBE700004C69625C54
:103E80004672656552544F535C7461736B732E6355
:103E9000000000004572726F723A25732C25640D84
:103EA0000A00000018000020FC0600205404002036
:103EB0002DE9F0472B4D00242746286B28B94FF4F5
:103EC000FD6229A12EA0FCF74DFAFFF775F9286BCA
:103ED000401E2863286BE8BBA8682D490126C8B39B
:103EE000A1F52A798846D8F80010E9B1D8F80C0075
:103EF000C46804F11800FFF703F9201DFFF700F96B
:103F0000E06A2A6906FA00F11143296100EB800199
:103F100009EB8100211DFFF743F9E06A2968C96AAE
:103F20008842E0D3EE61DEE70CB1FEF7A5FFAC6995
:103F30003CB1FFF751FE00B1EE61641EF9D10020E3
:103F4000A861E86930B11349012738070860BFF359
:103F50004F8F00E001E0BFF36F8FFFF769F938463C
:103F6000BDE8F087180000204C69625C4672656508
:103F700052544F535C7461736B732E6300000000E6
:103F80004572726F723A25732C25640D0A00000089
:103F9000FC06002004ED00E04FF04070E1EE100A56
:103FA0007047000000000102030401020304060739
:103FB00008090000000002400000000000000000AE
:103FC00002000000030000000000000000000240AA
:103FD00009000000020000000100000002000000D3
:103FE00007000000000002400A000000020000007C
:103FF0000100000002000000070000000004024071
:1040000000000000010000000100000003000000AB
:104010000000000000040240010000000100000058
:104020000100000003000000000000000008024042
:104030000D0000000000000001000000030000006F
:104040000000000000140240060000000100000013
:104050000100000002000000000000000014024007
:104060000700000002000000010000000200000044
:1040700005000000001402400800000002000000DB
:1040800001000000020000000500000000140240D2
:104090000900000002000000010000000200000012
:1040A00005000000001C02400200000000000000AB
:1040B000010000000300000000000000001C02409E
:1040C00003000000000000000100000003000000E9
:1040D00000000000001C024004000000010000007D
:1040E000010000000200000004000000001C02406B
:1040F00005000000010000000100000002000000B7
:104100000400000000000240000000000000024027
:1041100009000000000002400A0000000004024004
:1041200000000000000402400100000000080240FE
:104130000D000000001402400600000000140240C0
:1041400007000000001402400800000000140240B4
:1041500009000000001C024002000000001C024098
:1041600003000000001C024004000000001C02408C
:10417000050000002503032901020302023A7474BA
:10418000003A7474003A747400000000AC410008F6
:1041900000000020B8000000E801000864420008A8
:1041A000B800002000DB000004020008000000004E
:1041B00080A81201000000000000000001020304BA
:1041C00006070809000000000000000000000000D1
:1041D00000000000000000000000000000000000DF
:1041E00000000000000000000000000000000000CF
:1041F00000000000000000000000000000000000BF
:1042000000000000000000000000000000000000AE
:10421000000000000000000000000000AAAAAAAAF6
:10422000000000000000000000000000010000008D
:104230000500010004000000000000000200000072
:104240000A00020008000000000000000300000057
:104250000500040004000000000000000000000051
:04426000000000005A
:04000005080001AD41
:00000001FF
